:020000041FFFDC
:10080000000000000DE1FF1FA4F9FF1FCCF9FF1F3E
:10081000C4330020000000000000000000000000C1
:1008200000000000000000000000000000000000C8
:1008300000000000000000000000000000000000B8
:1008400000000000000000000000000000000000A8
:100850000000000000000000000000000000000098
:100860000000000000000000000000000000000088
:100870000000000000000000000000000000000078
:100880000000000000000000000000000000000068
:100890000000000000000000000000000000000058
:1008A0000000000000000000000000000000000048
:1008B0000000000000000000000000000000000038
:1008C0000000000000000000000000000000000028
:1008D0000000000000000000000000000000000018
:1008E0000000000000000000000000000000000008
:1008F00000000000000000000000000000000000F8
:1009000000000000000000000000000000000000E7
:1009100000000000000000000000000000000000D7
:1009200000000000000000000000000000000000C7
:1009300000000000000000000000000000000000B7
:1009400000000000000000000000000000000000A7
:100950000000000000000000000000000000000097
:100960000000000000000000000000000000000087
:100970000000000000000000000000000000000077
:100980000000000000000000000000000000000067
:1009900091D0FF1F25D1FF1F4DEEFF1F000000006B
:1009A0000000000000000000000000000000000047
:1009B0000000000000000000000000000000000037
:1009C0000000000000000000000000000000000027
:1009D0000000000000000000000000000000000017
:1009E0000000000000000000000000000000000007
:1009F00000000000000000000000000000000000F7
:100A000000000000000000000000000000000000E6
:100A100000000000000000000000000000000000D6
:100A200000000000000000000000000000000000C6
:100A300000000000000000000000000000000000B6
:100A400000000000000000000000000000000000A6
:100A50000000000000000000000000000000000096
:100A60000000000000000000000000000000000086
:100A70000000000000000000000000000000000076
:100A80000000000000000000000000000000000066
:100A90000000000000000000000000000000000056
:100AA0000000000000000000000000000000000046
:100AB0000000000000000000000000000000000036
:100AC0000000000000000000000000000000000026
:100AD0000000000000000000000000000000000016
:100AE0000000000000000000000000000000000006
:100AF00000000000000000000000000000000000F6
:100B000000000000000000000000000000000000E5
:100B100000000000000000000000000000000000D5
:100B200000000000000000000000000000000000C5
:100B300000000000000000000000000000000000B5
:100B400000000000000000000000000000000000A5
:100B50000000000000000000000000000000000095
:100B60000000000000000000000000000000000085
:100B700079D4FF1F0000000000000000000000000A
:100B80000000000000000000000000000000000065
:100B90000000000000000000000000000000000055
:100BA0000000000000000000000000009DBFFF1FCB
:100BB00000000000000000002DBFFF1F65BFFF1FE9
:100BC00015BFFF1F00000000000000000000000033
:100BD0000000000000000000000000000000000015
:100BE0000000000000000000000000000000000005
:100BF0000000000045BEFF1F0000000000000000D4
:0C0C000001FF01FF01FF01FF41000000A7
:020000041FFFDC
:10480000F0620020D548FF1FDD48FF1FDF48FF1F73
:104810000000000000000000000000000000000098
:10482000000000000000000000000000E148FF1F41
:104830000000000000000000E348FF1FE548FF1FE4
:104840000000000000000000000000000000000068
:104850000000000000000000000000000000000058
:104860000000000000000000000000000000000048
:104870000000000000000000000000000000000038
:104880000000000000000000000000000000000028
:104890000000000000000000000000000000000018
:1048A0000000000000000000000000000000000008
:1048B00000000000000000000000000000000000F8
:1048C0000348854600F0E8FC0048004781DEFF1FF2
:1048D000F06200200448804704480047FEE7FEE7F6
:1048E000FEE7FEE7FEE7FEE71588FF1FC148FF1F52
:1048F00038B50446C0681821401E4843A1684018D6
:104900003C214843616840183C21484321684518D0
:1049100060690C214843216940186921C900401A87
:10492000302100F05DFD114A5043421908460092C3
:104930001A2902DB0E49511800910C2100F050FD9C
:104940000C4A5043009A801800900B4806E0491E1C
:10495000425C074B5A43009BD21800920029F6DCB8
:104960002146684600F086FB009838BD801F860708
:10497000805101008033E1016C05002003460B43A8
:104980009B0703D009E008C9121F08C0042AFAD205
:1049900003E00B780370401C491C521EF9D270478B
:1049A000D2B201E00270401C491EFBD270470022C7
:1049B000F6E710B513460A4604461946FFF7F0FF1E
:1049C000204610BD10B5002200E0521C835C8C5CB8
:1049D000A34201D1002BF8D1D8B2E1B2401A10BDE8
:1049E00070B5104D002800D12868002414E00A4654
:1049F00002E09E4203D0521C1378002BF9D1DAB2A8
:104A0000224307D0002B06D0002C04D000210170D7
:104A1000401C04E00446401C0678002EE7D12860C4
:104A2000204670BD043500200321001D401E037880
:104A300012021A43491EF9D51046704770B5064652
:104A400004F066FB046805460A220021304600F0A7
:104A50004BFB2C6070BDF8B502464A40D40F4200B3
:104A60004B0052085B089A4202D2024608461146A1
:104A70004A0023D0C30D4A00DDB2120EAD1A202D1C
:104A800035DA49020126490AF6058A19002C00D0B8
:104A9000524220214F1B1146B9402A411018C20D25
:104AA0009A4221D0002C17D0012D08DCDA05801A9B
:104AB000D20F8019D207DBB200F056FBF8BDDA0541
:104AC000801A012340001B06C01880185A42801823
:104AD000CA0F1043490007E04908C2071143DA052D
:104AE000801A80194008801800F036FBF8BD61007C
:104AF0000122511A001BF7E70122D2075140AAE711
:104B00000122D2075040A6E7024670B54A40D30FB3
:104B1000DB0740002DD04A002AD0010E140E0002FF
:104B200012020919400A520A8418E5010446544346
:104B3000000A120A2E045043A4194219200CC5433E
:104B4000AA18120C0125AD03521C521912047F3908
:104B5000240400D0521C104301D44000491EC2B2AC
:104B60000C06C0092018401C4008802A02D003E02F
:104B7000002070BD40084000002900DA00201843E2
:104B800070BD70B502464A40D50F40004A00ED079F
:104B900040085208002814D0002A12D0C40DD30DAA
:104BA00041020120C0055202490A520AE41A0918BA
:104BB00012187D34914201D3641C00E04900002C9E
:104BC00001DA002070BD0023914201D3891A03430A
:104BD000400849000028F7D100290AD0914202D1AB
:104BE0000121C90705E0914201D2012101E0012123
:104BF000C943E005C018401900F0AEFA70BD42008C
:104C000005D04200120E52428A4201DB002070475A
:104C1000C905081870470000F0B507460846584017
:104C200087B0C00F049048000E465900400849085C
:104C3000BC1A884105D2384631461E4617460B46F7
:104C400002465800400810434CD0300D03904005F8
:104C50005900400D490D0590401A0290402872DA23
:104C600018030121000B09050843019004980092E4
:104C7000002805D0019952420020884100920190FD
:104C8000029840210A1A0199009800F0B6F90546E9
:104C90000C466B4607CB00F0D1F9C0197141039A5D
:104CA0000E0D0023D71756401A467A40164344D0BB
:104CB000049A002A2DD0029A012A039A15DC1205C3
:104CC000C01A914101263605001C7141D20F059E84
:104CD000D2070093019202962A46234600F08AFAF0
:104CE00007B0F0BD38463146FAE71605224A0F46AE
:104CF000B218C01AB74101210905001C4F41001824
:104D00007F41114618187941E20F10436D19644133
:104D100013E0E2076D0815436408C2071443039AC1
:104D200001261205C01A91413605001C7141CE07BB
:104D3000400830434908C01851412A46234600F034
:104D40004CFACDE7FFE7049801224000C117121A80
:104D500000238B4104983146C417381AA141EEE76D
:104D600030B40124E407634030BC55E730B401247B
:104D7000E407614030BC4FE70000E0FFF0B51FB42E
:104D800088B00B990998002448400999C00F490040
:104D900049080991C0070B990090490049080B91F7
:104DA00009990898A64608431CD00B990A9808430D
:104DB00018D0099801244000420D4800410D09987F
:104DC00024050003000B204309900B980003000BFF
:104DD00020430B9050181C494018002201901446A3
:104DE000104605E0002001460DB0F0BD032801DAB1
:104DF000034600E003239C46C11A0AAE0AE05F00A6
:104E000008ADED5B4F00F75B7D430027AA187C419E
:104E1000491C5B1E6145F2DD410004AB5A5221047E
:104E2000120C0A43240C401C0828DFDB0198029076
:104E30000099704601910090059B049A0799069885
:104E400000F0D8F9D0E700000DFCFFFF70B54B0073
:104E50005B0803430BD04B005C0D002633466542D4
:104E6000B341D417AD1AA34102DB0020014670BD47
:104E700012053018514170BDC217C10F504010B516
:104E80004018CA079623002100F06EF910BD10B536
:104E900000229623114600F067F910BD0EB5C21727
:104EA000C10F5040CA0740180021054B02930192E0
:104EB00000910A460B4600F09DF903B000BD0000CA
:104EC000330400000EB505490291002100910A4605
:104ED0000B46019100F08EF903B000BD33040000D1
:104EE000C20F410040020123400ADB05D207090E30
:104EF000C0187F2901DA00207047962903DC962329
:104F0000591AC84001E096398840002AF4D040423E
:104F10007047410040020122400AD205090E801864
:104F20007F2901DA00207047962903DC9622511A66
:104F3000C8407047963988407047C20FD20740007A
:104F400040080BD0C10D0723DB01C9184002090539
:104F5000400A1143C2084007114370470020014630
:104F60007047CB0FDB07490010B5490802460A43DA
:104F700007D00A0D07240903E401090B121B002ABC
:104F800001DC002010BDC900440F0C43C100E01833
:104F9000D205801800F0E0F810BDF0B51FB4064649
:104FA000002082B005464024019100901BE0019949
:104FB00022460F46304600F030F8049A059B801ACE
:104FC000994110D310461946224600F016F8361AB9
:104FD0008F410197224601200021009F00F00DF82B
:104FE00038184D4100902046641E0028DFDC019BEC
:104FF00000982946324607B0F0BD10B5202A04DBE0
:105000000146203A9140002010BD914020239C1A77
:105010000346E3401943904010BD10B5202A04DB3D
:105020000846203AD040002110BD0B46D340D04066
:105030002024A21A91400843194610BD10B5202A19
:1050400006DBCB170846203A1041C1170B4306E098
:105050000B461341D0402024A21A91400843194620
:1050600010BD000010B5024900F004F810BD0000AA
:10507000C459002070B50C4600683C2100F0B6F918
:1050800021603C2100F0B2F96160182100F0AEF916
:105090000546A1600721001D00F0A8F9A1610F4895
:1050A000A90008180E4900F0A1F902464432880808
:1050B0006261E0613B2802D3910700D0401C0021CF
:1050C000084B0A462161995C814203D8401A521C60
:1050D0002261F8E7401CE060204670BD6C0B0000C8
:1050E000B505000078050020F7B5009C0F460026A6
:1050F0002578641C002D05D000F0E0F80068405DC4
:10510000C007F5D12B2D02D02D2D18D0641E3946A5
:105110002046029A00F0D6F8002F04D03968A14248
:1051200001D1009939607105022400290BDA40424F
:10513000002803DD03F0ECFF0460A007FEBD0120A2
:1051400080020643E3E70028F8DA03F0E1FF046099
:105150000048FEBDFFFFFF7F002904DA401C490024
:1051600001D140084000704770B40024050C05D1FF
:105170001024000402D1002921D01124050E01D1F0
:1051800000020834050F01D10001241D850F01D153
:105190008000A41C002801DB4000641C002908D00A
:1051A00020252E1B0D46F540A14000D001212943AA
:1051B000084301061B1B000ADB1D02D5002070BC42
:1051C0007047DB05181880180029F8DA401C4900E0
:1051D000F5D170BC40084000704710B5002B08DACC
:1051E0000024401C614192185B411A4301D14008E0
:1051F000400010BDF0B51FB482B005460C0003D0CE
:10520000084603F01DFF02E003F01AFF20300246BB
:10521000009021462846FFF7F0FE049B059A0446BD
:105220000F4618431143084314D0184610431BD0AF
:10523000009840210A1A18460599FFF7EEFE054628
:105240000E46009A05990498FFF7D7FE084305D04B
:10525000012004E02046394607B0F0BD0020C11708
:1052600005430E432C43374300990E986305401ABB
:105270007905E40A00220C43FD0A0A3002D5002019
:105280000146E9E70105101969410C9C0D9D0019C3
:105290006941FFF7A2FFDFE7064C0125064E05E056
:1052A000E36807CC2B430C3C98471034B442F7D347
:1052B000FFF70AFB9C060020DC0600200048704730
:1052C00008060020F7B582B0029C00272078641CF5
:1052D00015460197302802D0002D15D015E0207812
:1052E0000127641C782804D0582802D0002D09D04A
:1052F0000BE0002D01D0102D07D1002710252078BC
:10530000641C02E0082500E00A250026009610E053
:105310000099012769430818020C294680B271439D
:1053200000908E183804864201D301200190207825
:10533000641C294600F019F80028E9DA03980028CF
:1053400005D0002F01D0641E00E0029C046001988B
:10535000002806D003F0DCFE02210160C81E05B063
:10536000F0BD009930040843F9E73A2800D23038FC
:10537000202302469A43412A01D3104637388842F7
:1053800001D30020C043704770B58C180578401CCD
:105390006B075B0F01D10378401C2A1106D10278FC
:1053A000401C03E006780E70401C491C5B1EF9D1BE
:1053B0002B0705D40023521E0DD40B70491CFAE7AD
:1053C0000378401CCB1A921C03E01D780D70491C19
:1053D0005B1C521EF9D5A142D8D3002070BD00003D
:1053E00003B40148019001BD9502000003B40148D7
:1053F000019001BD6902000003B40148019001BDA4
:10540000D542010003B40148019001BD3D420100B5
:1054100003B40148019001BDB142010003B4014849
:10542000019001BDC13C010003B40148019001BDE0
:10543000ED3C010003B40148019001BD19100000CA
:1054400003B40148019001BDC93A010003B4014809
:10545000019001BD5518000003B40148019001BD41
:105460008117000003B40148019001BD3518000008
:1054700003B40148019001BDA53C010003B40148FB
:10548000019001BD3917000003B40148019001BD2E
:105490007181000003B40148019001BD391400007E
:1054A00003B40148019001BD1117000003B4014885
:1054B000019001BDF13E010003B40148019001BD1E
:1054C0001B3D010003B40148019001BD71140000AF
:1054D00003B40148019001BDC131000003B401488B
:1054E000019001BDC912000003B40148019001BD43
:1054F0005D19000003B40148019001BD593A010053
:1055000003B40148019001BDC118000003B4014873
:10551000019001BD3515000003B40148019001BDA3
:105520004117000003B40148019001BDE9150000D6
:1055300003B40148019001BD897B000003B4014818
:10554000019001BDD520000003B40148019001BDC8
:10555000A5E5000003B40148019001BD3D1C000019
:1055600003B40148019001BD0D1D000003B40148C2
:10557000019001BD8306000003B40148019001BD04
:105580000143010003B40148019001BDE120000086
:1055900003B40148019001BDED3A010003B4014894
:1055A000019001BDF53C010003B40148019001BD2B
:1055B0005D3F010003B40148019001BDDD21000001
:1055C00003B40148019001BD01E6000003B40148A5
:1055D000019001BD4103000003B40148019001BDE9
:1055E000C91F000003B40148019001BD51710000C2
:1055F00003B40148019001BD9D19010003B40148A5
:10560000019001BD3921010003B40148019001BDA1
:105610008D44010003B40148019001BD5590000084
:1056200003B40148019001BD7D3A010003B4014873
:10563000019001BD913F010003B40148019001BDFB
:10564000A942010003B40148019001BDD136000018
:1056500003B40148019001BDBD07000003B4014837
:10566000019001BD891C000003B40148019001BDF7
:10567000E907000003B40148019001BD6D07000077
:1056800003B40148019001BDFD0E000003B40148C0
:10569000019001BD2D0E000003B40148019001BD31
:1056A0003D07000003B40148019001BD211A00002C
:1056B00003B40148019001BD050E000003B4014888
:1056C000019001BD8922000003B40148019001BD91
:1056D000610E000003B40148019001BD9D0E000061
:1056E00003B40148019001BDD50E000003B4014888
:1056F000019001BD610F000003B40148019001BD9C
:105700004F03000003B40148019001BD354301007F
:1057100003B40148019001BDE997000003B40148BA
:10572000019001BD3D98000003B40148019001BD06
:10573000E58D000003B40148019001BD49770100E7
:1057400003B40148019001BD85BE000003B40148C7
:10575000019001BDE91D010003B40148019001BDA4
:105760001120010003B40148019001BD492001004E
:1057700003B40148019001BDF504010003B40148E0
:10578000019001BD4112010003B40148019001BD27
:10579000FD0A010003B40148019001BDD90E0100CA
:1057A00003B40148019001BDCD1C010003B40148C0
:1057B000019001BD4956010003B40148019001BDAB
:1057C0008D3C010003B40148019001BDE55B000080
:1057D00003B40148019001BDE129000003B4014870
:1057E000019001BD9937000003B40148019001BD4B
:1057F0005114000003B40148019001BD091F0000CD
:1058000003B40148019001BDA579000003B401482B
:10581000019001BD7942010070B506460025284679
:10582000B030C1B2304603F0DBFB0021304603F05C
:10583000D7FB1021304603F0D3FB00240021304673
:1058400003F0D4FB641C502CF8DB6D1C102DE6DB40
:1058500070BD10B5212007F035FC10BD10B5034810
:105860000321C079FFF7C8FD10BD000038340020C7
:1058700010B503480321C079FFF7C4FD10BD000037
:1058800038340020F8B5174C0646E0680D4600286D
:1058900003D100F029F80120E0607D27FF00002DF2
:1058A0000BD01721012007F009FB07F041FB3A4616
:1058B0003146012007F016FBF8BD39463A46012073
:1058C00007F010FB012007F0BFFA07F049FB0021A9
:1058D000172007F049F80121172007F071F8002080
:1058E000E060F8BD3834002010B50021172006F024
:1058F000BFFF0021172006F0DBFF0121172007F072
:1059000033F800231A460321012007F0ABFA10BD3B
:1059100070B5154DE9782C462846103C00880029C2
:105920000AD00121FFF7AEFF642003F091F9E87877
:10593000401EE870C82212E0E178002907D001215A
:10594000FFF7A0FF0020FF22E070F53207E07D2086
:105950000121C000FFF796FF0120E070FA22032129
:10596000E079FFF755FD70BD4834002010B50121E6
:10597000084607F085F87D20C00004F0A0F900F08B
:105980001AF80021084607F07BF8FF20913004F058
:1059900096F90121084607F073F80121002007F06D
:1059A0006FF8962004F081F910BD10B5002108466B
:1059B00006F0DAFF10BD10B50121002006F0D4FF7B
:1059C0000121084606F0D0FF10BD10B5FFF7F3FF28
:1059D0000021084607F054F80121002007F050F894
:1059E000FFF7E3FF002007F007F80446FFF7E3FFA7
:1059F0000121002007F044F8204610BD70B50025B5
:105A0000FFF7D9FF0121002007F03AF80A2004F03F
:105A100056F908240021084607F032F80121002039
:105A200007F02EF8FFF7C1FF002006F0E5FF690040
:105A30000143CDB2122004F042F9FFF7BCFF01216F
:105A4000002007F01DF8641EE4D1284670BD000058
:105A5000F0B589B020216846FEF7A9FFFFF7B5FF32
:105A600004460A2004F02BF9FFF7AFFF0246204658
:105A7000104306D0214626A008F03AFC002009B0C9
:105A8000F0BDFFF7BBFF0446FFF7B8FF67067F0EC8
:105A9000FFF718FA06220446D2430891FFF7D6F919
:105AA00005460E463846FFF70DFA0122FFF7CEF9FC
:105AB000FFF757FAFFF741FA2A463346FFF7ACF8EB
:105AC000FFF74FFA054620460022184B0899FFF7CA
:105AD00055F9FFF746FA06462846FFF71AFAC4B208
:105AE000134D30462C70FFF714FAC0B2687064286A
:105AF00001D3643868706A782002801868802A2C84
:105B000003D921460BA008F0F3FB6888B7E7000033
:105B10006269745F636330203D20256420206269E0
:105B2000745F636331203D2025640A000000E93F73
:105B3000C034002054656D70724461746154203D1E
:105B400025642E2564200A0010B5807A002802D032
:105B500001F032FD012010BD70B506460025284633
:105B6000B030C1B2304603F03BFA0021304603F0BA
:105B700037FA1021304603F033FA00240021304672
:105B800003F034FA641C802CF8DB6D1C102DE6DB6E
:105B900070BD0000F8B53349FFF728FC0C460646F7
:105BA0003C212046FFF722FC2F4D2046A971E12120
:105BB0000901FFF71BFC044608463C21FFF716FCD1
:105BC0006871204608302871AC1E2680FF262748C1
:105BD0006F362880771E0DE0288801F0D9FC002858
:105BE00001D0304600E038462188081A20802888F5
:105BF000401C288080B201F0CBFC002801D0304648
:105C000000E0384621888842E6D900200BE0288849
:105C100001F0BEFCC0B2A97808F096F92188081AF4
:105C20002080A878401CA870288801F0B1FCC0B280
:105C3000A97808F089F921888842E8D3A9780A4828
:105C4000491CA9702278521CEA702B880830C38046
:105C50000171C2702979817069794170A9790170E7
:105C6000F8BD0000805101008E340020B207000012
:105C700010B50A480021C161016241624421283007
:105C8000FEF795FE0548FF2139316C30FEF78FFE97
:105C9000FF216B310248FEF78AFE10BDFC50002048
:105CA000A052002010B5034A1321034800F0D8FD8C
:105CB00010BD0000E4F8FF1F1430002010B50024D0
:105CC0001346002802D00224204610BD0A46194679
:105CD0000148FFF7A3FBF7E70B300020FEB50026D5
:105CE0006846012506720571264C05706902E07B45
:105CF000FFF782FB2902E07BFFF77EFB2021E07BA0
:105D0000FFF77AFBFFF7AAFD0421E07BFFF774FBA6
:105D10001021E07BFFF770FBFF200121F530FFF73A
:105D2000B1FD7D20000102F093FF7D200021C00025
:105D3000FFF7A8FD144801214670032006F040FE3D
:105D4000124E01A9304600F041F910486946093069
:105D500000F03CF968460079002803D168460078D5
:105D6000002807D1257102AA0121304600F06AFA05
:105D700000F08EFB68460278017905A008F0B8FAB9
:105D8000FEBD0000C83300201851002005030000AC
:105D90006164766572746973696E675F656E61626E
:105DA0006C653D256420636F6E6E68616E646C6522
:105DB0005F656E61626C653D25640A00FFB595B054
:105DC0000025109510AA119500F0A6F806460A289D
:105DD0007CD204460620444320462030C0B26A46A6
:105DE0000E2108F0C9F9002802D168468089C5B2A1
:105DF00017981390404818990078022813D0002073
:105E00001290082911D020462130C7B21C2200214F
:105E10006846FFF709FB6A461C21384608F0ACF9D2
:105E2000002805D010E00120EAE720462230ECE708
:105E30006846807EC01F092806D8E907C90F6A4650
:105E4000129B1398FFF7F6FA1422002107A8FFF718
:105E5000EBFA20462430C0B207AA102108F08CF9D2
:105E6000002812D11022FF2107A8FFF7E9FA002825
:105E70000BD12534E0B20BAA042108F07DF9E90723
:105E8000C90F07AA1798FFF7E1FA7036F0B20CAA0B
:105E9000102108F071F9002811D10CA804F07DFE42
:105EA00000240CAEA00080190188002903D082785C
:105EB000179800F031FD641CE4B2042CF2D3A8075B
:105EC00004D50D48017B179800F014FD189804289C
:105ED0000FD10949087802280BD10A791798002AAE
:105EE00000D001224978002900D004211143FFF796
:105EF000B3FA002019B0F0BD3032002010B5054CC7
:105F0000A061217B2620FFF7ADFA207B00F0A2FCE8
:105F100010BD000030320020F0B50A2485B01546CF
:105F20000F46002806D0012804D0022810D00328EC
:105F300046D11FE0084604F0FDFD04460A283FD282
:105F4000002D3DD0062239462846FFF767FA37E094
:105F50001D4E00240E206043801906223946801D04
:105F6000FFF786FA002823D1641CE4B20A2CF1D38F
:105F70000A241DE000242046062148432330C0B2F5
:105F80006A46102108F0F8F800280CD11022FF21F1
:105F90006846FFF755FA002805D139466846FFF7ED
:105FA0006DFA002804D0641CE4B20A2CE3D3DFE7C6
:105FB0000A2C05D2002D03D02946204604F0D2FD3C
:105FC000204605B0F0BD00002650002070B50C46FC
:105FD0000146032000020A1A002534481300FFF787
:105FE00053FA1D1012151C1F2326282C303234386A
:105FF0003A3C3E40424446484A4E50525A54565803
:106000005A00C07911E01022294902E028491022E3
:1060100010312046FFF702FA45E0C06A206042E0F6
:10602000224906223C31F4E7007820703BE0808969
:1060300036E01E4942784231EBE71D4982781F392C
:10604000E7E7007AF1E7407AEFE7184906223031B6
:10605000DFE7807AE9E7C07AE7E7C08920E0808A55
:106060001EE0C0781CE0C08A1AE0008B18E0408B6C
:1060700016E0808B14E00D4906223631C9E7C08B4B
:106080000EE0008C0CE0408C0AE08079CDE7008ABD
:1060900006E0408A04E0272904D20846FFF7FAF90F
:1060A000208000E00225284670BD00005432002008
:1060B000DB50002070B50E4C00256071A571691E83
:1060C000E181FFF7EDF90420E07110220021094879
:1060D000FFF7AAF90748102200211030FFF7A4F9B2
:1060E000E562257265720120A072E57270BD000044
:1060F00054320020DB500020FEB53B4D0C46080416
:106100000CD56879FFF7D2F9050004D004F04EFEF3
:106110002846FFF7D1F90120C00360E0600403D5F1
:10612000012080034840FEBD2F48E1070126807909
:1061300000292AD02978002920D0052821D0287AC2
:1061400069460870687A4870274900A806223031ED
:106150000230FFF763F9A87A69460872E87A487254
:106160006879FFF7AFF9002808D00720A871696A9D
:10617000002903D00968002900D0884720467040D4
:10618000FEBD032069460870E5E7A1070DD5052887
:1061900009D1E889FFF79CF9AA8A002A03D00221D5
:1061A0006879FFF735F9022019E0600704D500206F
:1061B00004F054FE042012E0200712D528790128AB
:1061C00002D002280AD107E00096AB8B6A8B298B9C
:1061D000E88A00F00BF801E000F05AF9082060406E
:1061E000FEBD0020FEBD000054320020F8B5134C67
:1061F000069DA679052E01D01420F8BD104F861FEC
:10620000BE4219D2062917D3BE1DB14214D2FF27B0
:10621000F537BA4210D20A2B0ED3B3420CD2E08229
:1062200021836283A383284604F018FE0421607949
:10623000FFF7E2F80020F8BD1820F8BD5432002026
:106240007A0C0000F7B50C468049009816464218B3
:106250007F4F00257879B9791300FFF715F9190EEA
:10626000141BE92040455970777E888FE996A2A9D2
:10627000B4BFC8E9E9E9E9D3E900102C76D11022CE
:10628000314674486FE0102C70D1724810223146AC
:10629000103068E0042C69D13068F862CEE0012C3F
:1062A00064D13B7832783A70002B0AD0002A07D1AB
:1062B000022903D0062901D0042901D1FFF70EF9E4
:1062C000BCE0002A0AD0012905D0032903D0052902
:1062D00001D0042902D10121FFF794F8AEE0022C8D
:1062E00044D13088B881A9E01F2C3FD858481F22DC
:1062F00000214230FFF798F8554822463146423097
:10630000FFF78CF8524B7C7042332246012112E099
:106310001F2C7CD84F481F2200211F38FFF784F81C
:106320004C48224631461F38FFF778F8494BBC707D
:106330001F3B224600217879FFF7D6F883E0012C35
:1063400065D13078042862D8387277E0012C5ED1AC
:10635000307803285BD8787270E0062C57D13C481F
:10636000062231463030FFF759F867E04FE0012C44
:106370004DD1307807284AD8B8725FE0012C46D159
:106380003078032843D8F87258E0022C3FD1328885
:10639000BA82002A52D0052950D10221FFF738F8DD
:1063A0004CE0012C33D13078012830D8F87045E02A
:1063B0003088022C2BD1062829D31921C901884203
:1063C00025D8F8823AE03088022C20D106281ED346
:1063D0001921C90188421AD838832FE03088022C4D
:1063E00015D1FF21F531884211D2788326E030881B
:1063F000022C0CD10A280AD31921C901884206D8D7
:10640000B8831BE03178012C01D1012901D0182576
:1064100014E00821FFF76EF8002801D016250DE0E2
:10642000002004F01BFD04217879FEF7E5FF05E06C
:106430000098272801D2022C02D002252846FEBD52
:106440003188FFF70FF80546F8E70000FFFCFFFF73
:1064500054320020DB5000201CB50B4CA1790029E0
:1064600001D011201CBD002800D0606206490748F9
:106470002C31034601910090103B0022E1796079B4
:1064800000F016F800201CBD54320020EB50002014
:1064900010B506488179052901D0122010BDC189A7
:1064A00013224079FFF72CF810BD00005432002071
:1064B000F8B51D460224069F079E0B00FEF7E4FF79
:1064C0000A1508060608150615060615002C0CD137
:1064D000FFF71CF8040008D1324639462846FFF77A
:1064E0001BF8FFF71FF8FFF723F82046F8BD000060
:1064F000014610B50020C90704D0034A042103480F
:1065000000F0AEF910BD0000F8F8FF1F6831002060
:1065100070B50F4D0F4CA87029461431204600F07D
:106520001DF8002128460B460C30CA008452121870
:10653000491C09065360090EF7D0012005F0BAF88E
:10654000A878FEF7FBFF0448FEF7FEFF70BD0000D1
:106550004C310020FFFF000025AFFF1F70B50A4C33
:106560000025A04209D1002082008C525218401C04
:10657000C0B295700228F7D370BD04F0A2FC0028C9
:10658000FAD00480857070BDFFFF0000F8B50E469C
:106590000746069900240798002902D00B242046BC
:1065A000F8BD022B01D00D24F9E7117852781202C0
:1065B00089188DB22946814301D08024EFE73846FF
:1065C000F16800F03FF9A842E9D02A463846F16860
:1065D00000F0D0F90400E2D171892A46384600F073
:1065E0006DF9DCE770B50C46080412D50A488078CE
:1065F000FEF75CFF050008D02878B02802D12846B5
:1066000004F07AFD2846FEF757FF0120C0036040E2
:1066100070BD002070BD00004C310020FFB583B07C
:10662000087A00250C9E1C460F46C0060DD505981D
:1066300004F040FC030006D00A223946039898472C
:10664000050035D101E00E2532E0387802281DD151
:10665000786829220178407812020002081881B275
:10666000881A91427ED009DC7348081A23D0012889
:1066700021D002284FD0032808D125E0012872D06C
:10668000022871D003286DD004286ED0059804F03C
:1066900039FC00286AD00568002DD4D00E990D98D9
:1066A000019100903346224639460398A847054693
:1066B000284607B0F0BD0D98002872D1F86801781F
:1066C00031700278416896E00D98002869D1012068
:1066D0003070F8680021007820707889401C80B202
:1066E000FEF738FF00280DD0317802788918891C10
:1066F0003170817A61704189090AA170027841681C
:10670000E01C79E030780422001D30700021601C0C
:10671000FEF78AFECCE70D98002875D1F86802A92B
:106720000088009004203070009820700098000AC3
:1067300060700098FEF70EFF070029D0F8680090FF
:106740006846028901AB3D493846FEF709FF00283B
:1067500010D13B7802213A487A68FEF707FF0028FB
:1067600008D104E026E030E01CE04AE062E0334873
:10677000694688800098007802280CD1009802228F
:106780004168201DFEF74AFE3078801C307002E020
:1067900069460098888068468088A070000AE0708A
:1067A00086E731E00D9800282ED1F968039800F0B3
:1067B00049F804E00D98002826D1F86800880221E5
:1067C00031702070000A607072E7F868FEF7D4FE3E
:1067D0000D99C0B2814212D8814201D1002206E057
:1067E0000E9A8918814202D30D99401AC2B23270B2
:1067F000F9680D9809182046FEF710FE58E707259E
:1068000056E70D98002801D00B2551E70721F868BD
:10681000317001782170417861708178A170418870
:10682000090AE1700179217181796171C088000ADA
:10683000A0713DE700252FE700280000FFFF0000C2
:106840001E7C010010B504F03CFB002800D08078CD
:1068500010BD000001490870704700004C31002055
:106860007CB51546040019D0684601940180FEF7F6
:1068700089FE03001DD1002D1BD06489002C0DD092
:106880000C20FEF785FE00280AD0002303608480D8
:10689000094A85605168002904D006E0022308E017
:1068A000132306E0506004E011460A68002AFBD179
:1068B000086018467CBD00004C310020F8B50C4C37
:1068C0000746207815460E46FF280FD00A20FEF70F
:1068D00065FE01000AD0B1200870002048700871E0
:1068E0004F80CE800D812078FEF75EFEF8BD00005F
:1068F0004C31002070B50C4605460649FFF7A2FF53
:10690000800704D521462846FEF754FE70BD0120BD
:1069100070BD0000603100201CB56B461A71120A70
:106920005A7100220092022301AA00F001F81CBD56
:10693000FFB583B008461E4601A90C9FFEF70AFE6C
:10694000050014D06846808804F0DCFA00280AD0DC
:106950004468002C09D00097F3B22946059A0398A1
:10696000A04707B0F0BD0024F3E70E20F9E70120AF
:10697000F7E7000070B514460E46054604F0A1FA8C
:10698000002806D13146054804F09BFA002803D0C0
:1069900005808470002070BD112070BDFFFF0000D5
:1069A000014610B50020C90704D0034A0721034857
:1069B000FFF756FF10BD00000CF9FF1FBC3100208F
:1069C00070B50D46164600241D490300FEF75CFD18
:1069D00008051234341934222934152D23D81622EF
:1069E00000211848FEF720FD2A4631461548FEF7DB
:1069F00015FD22E0022D16D11149108810390880AA
:106A00001BE0082D0FD10E48082231460838FDF74B
:106A1000B5FF12E0012D06D1CA6909493078283145
:106A200007E0012D01D0182407E0CA6B0449307833
:106A3000483105F082F800E00224204670BD0000D5
:106A4000BC3100200050002010B5FFF701F80446CB
:106A50000021012006F014F8204610BD01480078FE
:106A600070470000C833002010B502F0A7FD04F005
:106A700075FE10BDFEB50446014645A007F038FC82
:106A80004A4E052C07D0707A0127002505280ED024
:106A9000022856D057E07D22D2000221F07BFEF77B
:106AA000B7FC424942481431FFF790FA6EE068465D
:106AB000404907704A7FC81DF930002A02D1027C84
:106AC000002A11D04D770574B5713B4A0221F07B45
:106AD000FEF79EFC394A2021F07BFEF799FC374AED
:106AE0001021F07BFEF794FC0121B08A00F080F8C1
:106AF000042C09D120210820FEF7B4FC2021092014
:106B0000FEF7B0FC2E490AE0192189010820FEF7A2
:106B1000A9FC192189010920FEF7A4FC002100200D
:106B2000FEF7A0FC30790028684601D0057000E02F
:106B3000077002461E48357101210938FFF782FBB4
:106B400024E0032C02D0012C0DD01FE0B07A0028E5
:106B500001D0B5721AE00820FEF79CFC202815D160
:106B600068460770D0E7C12069468000FFF72EFA1B
:106B700069464879C87108798871C87848710D717B
:106B8000CD706A4608210020FFF798F87472FEBDA8
:106B90000A2048656172745261746547617053746C
:106BA00061746543423A202564200A00C8330020FE
:106BB0000E030000885100208813000010270000F9
:106BC0003075000010B5044606490748FFF7C6FCBB
:106BD0000448064A08210830FFF742FE01490C39F3
:106BE0004C6010BDC8320020FFFF000054F9FF1FA9
:106BF00010B50446084884420DD0012907D0022967
:106C000009D101212046FEF7DBFC002803D103490E
:106C10002046FFF7A3FC10BDFEFF0000C832002095
:106C2000F0B5064699B0D1A00D900E2007F056F9A8
:106C30000C90202104A8FDF7BAFE00241822CD49AB
:106C400010A8FDF79BFECC4D0423EE73082204A987
:106C5000012003F033FF002800D001200126002886
:106C600052D06846027C002A1AD1407C002817D1F5
:106C70006846807C002813D16846C07C00280FD16C
:106C80006846007D00280BD16846407D002807D16A
:106C90006846807D002803D16846C07D002833D037
:106CA0006F46787DB97D00024018397DFB7CBF7C42
:106CB00002910097039001936F467B7CAFA10C98E3
:106CC00002F0AAF90C98FEF781FCAB4F024644375C
:106CD000B81D0C99FDF752FEAFA00D9907F008FB07
:106CE000B91CB2A007F004FB04231A4604A9032030
:106CF00003F0E4FE002800D0012000281BD06846E5
:106D0000007C00280ED101E02E722FE06846407C06
:106D1000002807D16846807C002803D16846C07CE3
:106D2000002808D0944904A81631025D0A55641C55
:106D3000E4B2042CF9D30423022204A9184603F078
:106D4000BDFE002800D0012000280DD06846007C40
:106D5000002803D16946497C002905D06A46527C47
:106D60009749000280180880022028726846067140
:106D70000721017200248481067064210187FF21AC
:106D8000413101867D218486490181878DA003C818
:106D900016AA03C206218D48083AFFF753FAC3200A
:106DA00002AA01218000FFF74DFA884801AA0121BB
:106DB000801FFFF747FA854803AA0221401FFFF70B
:106DC00041FA6D4A612044321421C000FFF73AFABB
:106DD000694A7E4858321521001FFFF733FA3120E7
:106DE0006A4601210001FFF72DFA78480EAA022118
:106DF000801DFFF727FA75480CAA0221C01DFFF776
:106E000021FA72480DAA02210830FFF71BFAC520AB
:106E10000FAA02218000FFF715FA10AA1521002001
:106E2000FFF7CEFD0226684606706A46012130460D
:106E300000F0E6FA1927BF0139460620FEF712FBDB
:106E400039460720FEF70EFB39460820FEF70AFBFD
:106E500039460920FEF706FB671E3846FFF7A0FDFE
:106E60003846FFF745FBFEF71DFF5948FFF7AAFE1E
:106E7000584800F0BFFA07F00DFA02F04BFC5648F4
:106E800002F0DEFBFEF7F4FE0121002004F024FFF7
:106E90000121084604F020FF0121022004F01CFF1C
:106EA0000121032004F018FF0021084605F000FD31
:106EB0000021012005F0FCFC0021022005F0F8FC77
:106EC0000021032005F0F4FC0121084605F04CFDEB
:106ED0000121022005F048FD0021032005F044FDBA
:106EE0000021222005F0C4FC0021222005F0E0FC56
:106EF0000021222005F038FD0121032005F060FD6E
:106F0000FEF7F2FC35480A2104744481047344738B
:106F10008473C473FDF74BFD314CB1022246E87B0C
:106F2000FEF776FA2F4AF101E87BFEF771FA2E722E
:106F30007D26F60032460421E87BFEF769FA3246E8
:106F40002021E87BFEF764FA22461021E87BFEF759
:106F50005FFA297A24A007F0CBF9287A04F0D4FF4D
:106F60000121E87BFEF74EFA19B0F0BD5A4C595F8B
:106F700000000000D8F9FF1FC8330020253032641C
:106F80002530326425303264253032642530326455
:106F9000253033640000000066697273744E616DC1
:106FA000653D3D3E735B25735D200A007363616E32
:106FB000446174613D3D3E735B25735D200A0000B2
:106FC0004834002001020304050600000B03000002
:106FD00015F8FF1FB9D4FF1F96340020065100207A
:106FE00060EA0000DC050000536574436F64654F80
:106FF0004B203D202564200A0000000070B50C469F
:1070000005460849FFF71EFCC00709D005480022C5
:107010000830408D208021462846FEF7DDFA70BDFD
:10702000122070BDC8320020F8B5C54D0C460804CA
:107030000CD5C4A007F05CF9E87BFEF737FA00280E
:1070400001D0FEF739FA0120C00375E1E0070BD04B
:10705000C2A007F04DF9BA482830FFF7FDF9C6483D
:10706000FEF74CFF012067E1B548C44E82790178F4
:10707000A30717D5687A052812D1002A10D1002954
:1070800006D1222005F070FC222005F0B5FC3070FE
:1070900002F010FC7D22D2000221E87BFEF7B8F955
:1070A000022049E1A6486307C07B20D5B44A927804
:1070B0000A430AD0B34A0421FEF7AAF92878002827
:1070C00013D07078002807D00FE0FFF7CDFC707068
:1070D000AD4A0421E87BEFE7FFF7C6FC70707D2224
:1070E00012010421E87BFEF793F9042024E1230632
:1070F00001D5802020E163050027002B04DAA04899
:1071000087700120800217E1230511D5E878012658
:10711000F602002802D003F049FA06E002F074FB00
:107120009A4A3146E87BFEF773F920467040F8BD75
:10713000230715D5824A914930321C391546002063
:107140008B78163D012101E0032801DA002B01D0E4
:10715000115400E02954401C0828F5DB0820EBE01E
:10716000A30607D5FEF702FC4021E87BFEF74AF9AB
:107170002020E1E0630623D5FFF766FC80B201F032
:1071800061FB07000AD0B088010AB170F07002F00C
:107190003BFB01F01DFDB06001F07AFD687A052827
:1071A0000BD02878002808D1002F06D0754A20215E
:1071B000E87BFEF72DF94020BEE07D22D200F6E705
:1071C000E3061BD5002A04D000F0E2FC06F0ACFA7E
:1071D00012E0002901D1FEF73CFBB08811214902E1
:1071E000401A0B210902884201D807F05FFF684A64
:1071F0001021E87BFEF70CF910209DE0E2055CD53C
:10720000002931D0687800282ED00121022005F015
:1072100037FC00F0BDFC0021222005F0A5FB222058
:1072200005F0EAFB3070AF730346B28871783846D8
:1072300002F0F8FD7D26F60032462021E87BFEF7BD
:10724000E7F8FF21514A0131E87BFEF7E1F801211F
:1072500032464902E87BFEF7DBF832460421E87B40
:10726000FEF7D6F86F7025E04AA007F041F803F06A
:1072700029F8FEF7EEFA2F7041486F70877030489A
:107280001E3041788278C0788918C14204D04D4AB6
:107290000821E87BFEF7BCF80021022005F0F0FB96
:1072A00001214902E87BFEF7A7F8FF210131E87BC5
:1072B000FEF7A2F8FF2001303EE0A1053ED571782F
:1072C000002909D10421FEF79DF87D220121D20079
:1072D0004902E87BFEF79CF8A87801281CD02978A1
:1072E000002924D00021222005F03EFB222005F0B9
:1072F00083FB034630700120A873B288717802F0D6
:1073000091FD307800280FD07D22D2000121490262
:10731000E87BFEF77DF80DE001206870AF70010298
:10732000E87BFEF76FF805E0FF22F532EEE726A0D6
:1073300006F0DEFF012040026040F8BD0020F8BDED
:10734000C83300206576656E747320262053595328
:107350005F4556454E545F4D53470A006576656E4E
:10736000747320262053544152545F444556494378
:10737000455F4556540A0000D0F9FF1F1851002000
:1073800048340020C0D40100C027090060EA000092
:10739000102700002A2A2A2A2A2A2A2A2A2A5B5B5C
:1073A0005B20656D373078785F73746F70205D5D3A
:1073B0005D2A2A2A2A2A2A2A2A2A2A2A2A2A2A2AFA
:1073C0000A000000E0930400232323232323232324
:1073D000234F54484552203D3D3E20446973706C14
:1073E0006179466C6167202121203D3D3E5B25642B
:1073F0005D0A00000149886070470000BC3200202F
:1074000001460020012902D0022900D00220704745
:10741000FEB5002406462046032231188979131A46
:10742000DB009940401C6418C0B20428F5D3394DE4
:107430007078A87728466438046471782030C17762
:107440003548844258D32046FEF7A4FB33486F46A4
:107450008178037842780EC7C3780279C18830A05A
:1074600006F046FF354F1021F87BFDF7C5FF07F00A
:107470001DFE204604F082FAE877014630A006F0AF
:1074800037FFE87F0124002819D0BC71697FE81D0F
:10749000F930002902D1017C002902D0002169774E
:1074A00001740221F87BFDF7A7FF2021F87BFDF78F
:1074B000A3FF0A221021F87BFDF7AAFFFEBD7D2263
:1074C000D2001021F87BFDF7A3FF224D4120E87088
:1074D00070782871B0786871AC71EC7100202872F6
:1074E0000621E81C01F09EF968720720A870294661
:1074F000B88AFFF783FDFEBD17A006F0F9FEA87F4E
:107500000122022102F014FA0100F4D019A006F0C1
:10751000EFFEFEBD8851002080F5ED5F963400201F
:1075200054696D652069733A25642D25642D2564A1
:107530002C2025643A25643A25640A00C8330020CB
:1075400073656E642E546F74616C4E756D203D25AD
:1075500064200A001E5400203D3D3D54696D6520A5
:10756000697320696E636F72726563742021213DB7
:107570003E000000232323236572725F636F6465FE
:1075800023232323232323233D3D3E5B25785D00D6
:1075900010B50446810704D16421FDF721FF0029BD
:1075A00008D1FF2191312046FDF71AFF002901D0B3
:1075B000002010BD012010BDFEB501216A461170EA
:1075C000117111728F4A002093780246002B73D0FC
:1075D0008D4EB378371F002B07D0331D39541A5402
:1075E0003254401C0328F9DB13E07378002B08D0D9
:1075F000854B1B1D39541A543254401C0228F9DBA8
:1076000007E03078002804D07F483970001D0270F0
:1076100032707D4C7D4D1234E87923460A330028C0
:107620001BD0002001E0032813DAAC78002C05D031
:10763000754C123421541A542A5404E0724C3954B3
:10764000241D22543254704C1234401C0828EADBAA
:10765000A8E021541A542A54F7E7A87900281BD02F
:10766000002001E0032813DAAC78002C05D0664C2A
:10767000123421541A542A5404E0634C3954241D02
:1076800022543254604C1234401C0728EADB89E053
:1076900021541A542A54F7E7687900281CD0002096
:1076A00001E0032814DAAC78002C06D0564C1234D2
:1076B00021541A542A5405E07EE0534C3954241DB9
:1076C00022543254504C1234401C0628E9DB69E045
:1076D00021541A542A54F7E7287900281BD0002097
:1076E00001E0032813DAAC78002C05D0464C1234A4
:1076F00021541A542A5404E0434C3954241D225472
:107700003254414C1234401C0528EADB4AE0215433
:107710001A542A54F7E7E87800281BD0002001E02B
:10772000032813DAAC78002C05D0374C12342154DE
:107730001A542A5404E0344C3954241D225432542F
:10774000314C1234401C0428EADB2BE021541A543B
:107750002A54F7E7A878002807D0002021541A54AB
:107760002A54401C0328F9DB1CE02848457800789F
:10777000002D264D11D0002803D021701A702A70D8
:1077800007E021483970001D027032707970427034
:10779000727061705A706A7004E0002802D0217023
:1077A0001A702A701748827017481E38417001708D
:1077B000FF210131C07B21E0134C1E3C20780028C2
:1077C00001D0227001E061702170114D01A928469D
:1077D000FEF7FCFB0E4802A90930FEF7F7FB6846EE
:1077E0000179002907D1017AFF2904D1024601213C
:1077F0002846FEF727FDFF210131E07BFDF702FE61
:10780000FEBD000048340020E6330020FC5000207C
:1078100005030000F8B51C490024C8711BA006F040
:1078200067FD03201F4F0026387060002518E819F7
:10783000467001218170785D03280BD11A4A00211E
:107840000D2005F003FC785D002105F011F817A06C
:1078500006F04EFD641C2406240EE6D00A4CE079A6
:1078600038731648386106F023F92046032110309A
:10787000C170FF21F531867001804A000321E07953
:10788000FDF7C6FDF8BD0000383400206770696F51
:10789000206B65792064656D6F2073746172742E3E
:1078A0002E2E0A00845800202584FF1F50303320DC
:1078B000697320757365640A000000005DDBFF1FBB
:1078C000F8B50D463249C97988425ED1A80711D072
:1078D0002F4810308178002902D1C078002802D0CA
:1078E000FEF716F804E07D200021C000FDF7CAFF76
:1078F000032048E0274EE80708D027A006F0F8FC50
:10790000307B0221FDF778FD01203CE0E80518D529
:1079100024A006F0EDFC0024E0008019007A012884
:1079200005D06000201880194078032802D1204635
:1079300004F0C0F9641C2406240EEDD0FF200130B1
:1079400021E0A80521D51EA006F0D2FC002460008D
:1079500026181048214637187A7823A006F0C8FC6C
:10796000787802280AD1FEF7B9F90A482146825DE3
:1079700025A006F0BDFC28A006F0BAFC641C012C72
:10798000E5DB012040026840F8BD0020F8BD0000A2
:1079900038340020845800206F6E63652074696D50
:1079A00065720A002048414C5F4B45595F4556457A
:1079B0004E54203D3D3E20535441525420200A0055
:1079C000204B45595F44454D4F5F4C4F4E475F50EC
:1079D000524553535F455654203D3D3E202053545D
:1079E0004152540A000000006B65795F7374617442
:1079F000652E6B65795B25645D2E737461746520FB
:107A00003D202564200A00006B65793A25642067D3
:107A100070696F3A25640900506F776572204F4690
:107A200046200A00F8B5454F0A46397884460929A8
:107A300048D00A2946D00B2944D00C2942D00D2920
:107A400040D03F4C607A002801D001281AD120781C
:107A5000002801D0012815D165893A482B1F83429F
:107A600010D2A3891E1F86420CD2AB420AD8002A2C
:107A700001D0012A06D16046334B344D00282DD069
:107A8000012801D01220F8BD207A01281AD0252023
:107A90000126002904D007290AD0082908D011E0BE
:107AA000E671E273A07405203870FDF79BFD13E0CA
:107AB0006A68928D520605D51A78002A04D024A04F
:107AC00001F09AFA2120F8BDA07427481E70012108
:107AD00009030078FDF796FC26722CE072B60026AA
:107AE000052904D0072907D0082905D005E03E70F4
:107AF0001E20FDF77DFD00E01E7026725820FDF768
:107B00007DFD62B6FDF780FD184E194CA8600FE0B0
:107B1000FDF77AFDA968884201D3401A01E0711A85
:107B20000818E8607D226969D2005143814202D37E
:107B300020680128ECD00020F8BD00001D12FF1FB6
:107B4000421DFF1FFD3F00002312FF1FE4340020F1
:107B50005B4C4C5F4442475D202530325820253035
:107B600032580A0D000000001C12FF1F40420F0097
:107B70005812FF1FBFF34F8F04490348C860BFF37B
:107B80004F8F00BFFDE700000400FA0500ED00E0A4
:107B900010B5212005F030FA10BD70B50C46B0329A
:107BA0000546D1B201F01CFA21092846103101F036
:107BB00017FA2107090F284601F012FA70BD0000DC
:107BC000FFB581B0002602980A991F461546344633
:107BD0004F2803D90020951CEDB20290002947D010
:107BE000442F0DD101462A460198FFF7D6FF45489C
:107BF000015D019801F0FAF9641CE4B2042CF6D39B
:107C0000412F33D12A4602990198FFF7C6FF182069
:107C100046433C4800247C303618315D019801F021
:107C2000E5F9641CE4B2182CF7D3681EC2B20299BD
:107C30000198FFF7B2FF00243019017E019801F08E
:107C4000D5F9641CE4B2182CF6D3AD1EEAB2029941
:107C50000198FFF7A2FF002430192030017C019821
:107C600001F0C4F9641CE4B2182CF5D305B0F0BDE2
:107C7000442F0DD101462A460198FFF78EFF214E71
:107C80000198315D01F0B2F9641CE4B2042CF7D321
:107C9000412FEBD1681EC2B2032602990198FFF76B
:107CA0007CFF18204643174800247C303618315D8D
:107CB000019801F09BF9641CE4B2182CF7D3A81EBC
:107CC000C2B202990198FFF768FF00243019017EC3
:107CD000019801F08BF9641CE4B2182CF6D3ED1E68
:107CE000EAB202990198FFF758FF002430192030BA
:107CF000017C019801F07AF9641CE4B2182CF5D3E8
:107D0000B4E700005CFAFF1FFFB581B015460F46CF
:107D100059000A9A0024A81C5918002A39D0CEB25A
:107D20004F2F01D90027C5B22A4639460198FFF7DF
:107D300034FF2420464334483618315D019801F061
:107D400055F9641CE4B2242CF7D3681EC2B239463C
:107D50000198FFF722FF00243019203001790198A3
:107D600001F044F9641CE4B2242CF5D3AD1EEAB250
:107D700039460198FFF711FF002430194030017A8D
:107D8000019801F033F9641CE4B2242CF5D305B05A
:107D9000F0BD1E31CEB24F2F01D90027C5B22A4601
:107DA00039460198FFF7F9FE242046431648361855
:107DB000315D019801F01AF9641CE4B2242CF7D368
:107DC000681EC2B239460198FFF7E7FE0024301959
:107DD00020300179019801F009F9641CE4B2242CE7
:107DE000F5D3AD1EEAB239460198FFF7D6FE00245E
:107DF00030194030017A019801F0F8F8641CE4B2BF
:107E0000242CF5D3C3E7000068FBFF1FFFB581B04A
:107E10000398039FC01E0A99BE1E00247F1E1D46A4
:107E2000009000297ED09E48002101ABC16007CBA5
:107E3000FFF7B3FE9A480C21C0684843994940189F
:107E4000015D019801F0D2F8641CE4B20C2CF1D36E
:107E5000FAB202990198FFF7A0FE002490480C2185
:107E6000C06848438F4940180019017B019801F010
:107E7000BDF8641CE4B20C2CF0D3F2B20299019864
:107E8000FFF78BFE002486480C21C06848438549D3
:107E900040180019017B019801F0A8F8641CE4B2B5
:107EA0000C2CF0D300980299C2B20198FFF775FE2E
:107EB00000247B480C21C06848437A4940180019C7
:107EC000017E019801F092F8641CE4B20C2CF0D30E
:107ED000002D45D001AB07CBFFF75FFE00247048B3
:107EE0000C21C06848436F494018001920300179BF
:107EF000019801F07BF8641CE4B20C2CEFD3022D46
:107F00002ED3FAB202990198FFF747FE644F00247E
:107F1000F8680C2148436349401800192030017C5F
:107F2000019800E01EE001F061F8641CE4B20C2C42
:107F3000EED3032D14D3F2B202990198FFF72DFE70
:107F4000584D0024F8680C2148434019001920308E
:107F5000017C019801F04AF8641CE4B20C2CF1D3C6
:107F600005B0F0BD4E480521C16000980299C2B22B
:107F70000198FFF712FE4A480C21C068484349495E
:107F80004018015D019801F031F8641CE4B20C2C3A
:107F9000F1D3FAB202990198FFF7FFFD002440489F
:107FA0000C21C06848433F4940180019017B0198E3
:107FB00001F01CF8641CE4B20C2CF0D3F2B202996C
:107FC0000198FFF7EAFD002435480C21C0684843BA
:107FD000344940180019017B019801F007F8641C2E
:107FE000E4B20C2CF0D301AB07CBFFF7D6FD002495
:107FF0002B480C21C06848432A4940180019017ECB
:10800000019800F0F3FF641CE4B20C2CF0D3002DB7
:10801000A6D000980299C2B20198FFF7BEFD0024D5
:108020001F480C21C06848431E49401800192030E1
:108030000179019800F0DAFF641CE4B20C2CEFD354
:10804000022D8DD3F2B202990198FFF7A6FD144ECE
:108050000024F0680C2148431249401800192030D0
:10806000017C019800F0C2FF641CE4B20C2CF0D338
:10807000032DE6D3FAB202990198FFF78EFD094D60
:108080000024F0680C214843401900192030017C7D
:10809000019800F0ABFF641CE4B20C2CF1D35FE755
:1080A000D034002060FAFF1F70B50546049B002401
:1080B000901C002B0FD04F2901D90021C2B22846B5
:1080C000FFF76BFD0021284600F090FF641CE4B22E
:1080D000102CF7D370BD4F2901D90021C2B2284618
:1080E000FFF75BFD0021284600F080FF641CE4B22E
:1080F000102CF7D370BD0000F8B50746069D00248C
:10810000901C154E002D12D01D464F2901D900217B
:10811000C2B23846FFF741FD28018519295D38466E
:1081200000F064FF641CE4B2102CF7D3F8BD0B33ED
:10813000DDB24F2901D90021C2B23846FFF72DFD2B
:1081400028018519295D384600F050FF641CE4B20F
:10815000102CF7D3F8BD0000D8030020FFB581B084
:108160000D4600260B99901C1746344600293DD039
:10817000002B00D102264F2D01D90025C7B23A4667
:1081800029460198FFF709FD0D2046433648361869
:10819000315D019800F02AFF641CE4B20D2CF7D386
:1081A0007F1EFAB229460198FFF7F7FC0024301928
:1081B000417B019800F01AFF641CE4B20D2CF6D349
:1081C0000A98002810D0002410351020001BC2B2DD
:1081D000E9B20198FFF7E1FCFF21019800F006FFEA
:1081E000641CE4B2102CF0D905B0F0BD002B00D116
:1081F00002264F2D01D90025C7B23A4629460198DB
:10820000FFF7CBFC0D20464317483618315D019827
:1082100000F0ECFE641CE4B20D2CF7D37F1EFAB222
:1082200029460198FFF7B9FC00243019417B0198D9
:1082300000F0DCFE641CE4B20D2CF6D30A98002892
:10824000D2D000242D1F1020001BC2B2E9B2019829
:10825000FFF7A3FCFF21019800F0C8FE641CE4B204
:10826000102CF0D9C0E7000038050020FFB581B020
:1082700000240A982546002800D105251E2B2CD263
:10828000664E3079012814D0002824D10299019833
:10829000FFF783FC0C20454361482D182819203036
:1082A0000179019800F0A2FE641CE4B20C2CF5D315
:1082B0004FE002990198FFF770FC0C2045435848A5
:1082C0002D18295D019800F091FE641CE4B20C2C7D
:1082D000F7D32CE0307105B0F0BD18461E38571E9C
:1082E0001E2838D202990198FFF757FC0C2045430D
:1082F0004B482D18281920300179019800F076FE9E
:10830000641CE4B20C2CF5D3444E3079002810D014
:10831000FAB202990198FFF740FC00242819017B6A
:10832000019800F063FE641CE4B20C2CF6D300202C
:10833000D0E7FAB202990198FFF72FFC0024281920
:108340002030017C019800F051FE641CE4B20C2C3A
:10835000F5D30120BEE7961E3C3B282B49D202995B
:108360000198FFF71AFC0C2045432D482D182819B9
:1083700020300179019800F039FE641CE4B20C2C25
:10838000F5D3FAB202990198FFF707FC00242819E7
:108390002030017C019800F029FE641CE4B20C2C12
:1083A000F5D31E4F3879002810D0F2B20299019807
:1083B000FFF7F3FB00242819017B019800F016FE5B
:1083C000641CE4B20C2CF6D3002010E0F2B2029947
:1083D0000198FFF7E2FB002428192030017C019866
:1083E00000F004FE641CE4B20C2CF5D301203871BB
:1083F00071E7F2B202990198FFF7CFFB0C204543D9
:1084000007482D1828192030017C019800F0EEFD56
:10841000641CE4B20C2CF5D35DE70000D0340020DE
:1084200060FAFF1F10B50021032004F021FA10BDEF
:1084300001608A184160C260816070474368826849
:1084400093420BD012780A708168491C8160C2681F
:10845000914201D10168816001207047FF200870BE
:108460000020704710B5836842685C1EA24211D09C
:10847000C468641EA24202D10468A3420AD01170EB
:108480004168491C4160C268914201D10168416064
:10849000012010BD002010BDF8B5044600200346A1
:1084A0000A5C8507ED0EAA401343401C0428F7DB45
:1084B00001F05AFB0028FBD101F030FF210220041B
:1084C000090E0843FF273F0221463940084372B690
:1084D00000211A4DA960194E0002803E801C3060B8
:1084E000336062B601F040FB0028FBD101F08AFC4A
:1084F00011200006201869462A695207FCD572B679
:108500000422AA6004020204240E224338400243DB
:108510001002C01C306062B628694007FCD5307874
:10852000087030784870307888703078C87000985B
:10853000984201D00020F8BD0120F8BD800008114C
:1085400010B50024224605E00378521C1B19DCB24A
:10855000D2B2401C8A42F7D3214603A005F0C8FEE0
:10856000641CE0B210BD0000524554203D25780047
:108570000C490A695207FCD572B604228A600302CC
:1085800002041B0E1A43FF231B0218400243054836
:1085900012028038D21C02600A695207FCD562B60A
:1085A000006870478000081170B5124D06466A7861
:1085B000297811A005F09CFE134C4120E0707078E2
:1085C0002071B07860710120A071E07102202072EA
:1085D000287860726878A0720821E01C00F022F907
:1085E000E0720920A070284610382146808AFEF7E4
:1085F00005FD70BDD833002056657273696F6E3DFE
:1086000025642E2564200A001E54002010B504465F
:10861000AE2100F0E5FC2021204600F0E1FC8121A4
:10862000204600F0DDFCB021204600F0D9FCA0215E
:10863000204600F0D5FCA421204600F0D1FCA62164
:10864000204600F0CDFCC021204600F0C9FCD52119
:10865000204600F0C5FC9121204600F0C1FCD92144
:10866000204600F0BDFC2221204600F0B9FCDB21B1
:10867000204600F0B5FC3F21204600F0B1FCA821C7
:10868000204600F0ADFC4F21204600F0A9FCD3218C
:10869000204600F0A5FC6821204600F0A1FCDC216A
:1086A000204600F09DFC0021204600F099FCAD2101
:1086B000204600F095FC8A21204600F091FC2046DF
:1086C000FDF74AFAAF21204600F08AFC10BD0000F9
:1086D0001FB504466846017042703C21204604F0F4
:1086E00061FA72B6204604F045FB02226946204634
:1086F00004F028FB62B6204604F04CFB002800D0B2
:10870000012002498870012004B010BDD03400203F
:1087100010B50A4B827900245978002A01D001292A
:1087200002D00A4302D007E0002000E00120587088
:1087300001F0C8FD00F080FA204610BDD0340020C2
:1087400010B5074982790A70C2794A70027A8A7034
:10875000407AC87002230422032002F0CBF910BD36
:10876000DE330020F8B501460020009089791F4DC6
:10877000024601292DD002292ED0032928D1FF201D
:1087800091301B4C28802178FF2720460137C07B81
:108790000126002923D062707102FCF733FE154ACE
:1087A0003946E07BFCF734FEAE700121124A8902A3
:1087B000E07BFCF72DFEFDF75BF828886A46010A8E
:1087C0001170507002231A466946042002F092F993
:1087D000F8BDFF20F530D4E7FF20C330D1E7667045
:1087E00026703946FCF70EFEDEE700004834002014
:1087F000C833002060EA00001027000010B50448CC
:108800000121C1701922C902C07BFCF701FE10BD15
:10881000C8330020024901480860704740787D0154
:10882000E034002010B500231A4605E00478521CFD
:10883000E318DBB2D2B2401C8A42F7D3D843C0B2AD
:1088400010BD0000F8B50027674D0446002874D01D
:1088500005204002844270D9644884426DD21120C0
:108860004002844263D32E46123E307C052800D35A
:108870003774307B05280ED2401C30735C4884422C
:1088800002D3307C40003752307C40003452307C80
:10889000401C307412E00120707330887188F288B7
:1088A0004018B18889184018318940180521FCF713
:1088B0009DFD81B271814FA005F01AFD214653A0A4
:1088C00005F016FD707B002831D07089A04213D8C6
:1088D000201AFF2807DC307C40003452307C401CDA
:1088E0003074B77323E021464DA005F001FDB07B45
:1088F000401CC0B2B07312E0001BFF2807DC307CC4
:1089000040003452307C401C3074F7730FE0214635
:1089100048A005F0EDFCF07B401CC0B2F0730228CB
:108920005DD3307C40003452307C401C307446486B
:10893000AC80448207730EE0FFE74349087B0528BB
:1089400004D8401C0873488AA88004E0002C01D099
:10895000AC8000E0AF80AC88E0B2FCF798FA3B4E08
:108960003146FCF70EF90746200AFCF790FA394623
:10897000FCF771F809210902354A611A914204D8BD
:108980007D21C905FCF7B8F810E03249324A611878
:1089900091420BD8FCF7D1FA304A314BFCF7EEF993
:1089A000304A314BFCF7DCF9FCF7DBFA3446314650
:1089B000FCF7AAF806462146FCF7E3F8FCF7A9FA0B
:1089C00004023046FCF7A5FA80B26421FCF70EFDE4
:1089D0006018A8801C48007B401E042801D8002095
:1089E000F8BD0120F8BD000018510020322D000014
:1089F0003225000054656D706572612E41766744C2
:108A00006174203D2578200A0000000054656D70D7
:108A10006572612E64617461203D2578200A000032
:108A200054656D70657261313131203D2578200AC1
:108A30000000000054656D70657261323232203D75
:108A40002578200A00000000C83300200000C8423A
:108A5000320F0000CDE7FFFFCD1900000BB5A6795E
:108A6000C729F03FDB8AFD65F7E4D53FFEB5054633
:108A70000024407800902046032229188979131A8F
:108A8000DB009940401C6418C0B20428F5D321468D
:108A900023A005F02DFC2D4801272D4E844209D33B
:108AA00000220121009800F0E9FE010077710ED04C
:108AB00028A00AE02FA005F01BFC01221146009817
:108AC00000F036FF010002D030A005F011FC204676
:108AD000FDF760F8082235496846FBF74FFF01991A
:108AE000009800F04DFE31486C468178037842785A
:108AF0000EC4C3780279C1882DA005F0F9FBA878CF
:108B0000032806D0012804D0042801D10020F071E8
:108B1000FEBD2E4A2021F07BFCF77AFCF771FEBDEA
:108B20003D3D3D3D54696D6543616C6962726174A0
:108B3000696F6E3A4E4557205254433D3D3E5B307F
:108B400078253038785D200A0000000080F5ED5F60
:108B5000C8330020232323236572725F636F64652B
:108B60002323232323232323313D3D3E5B25785DAF
:108B7000000000003D3D3D496E636F727265637495
:108B8000205254432021213D3E0000002323232373
:108B90006572725F636F646523232323232323237A
:108BA000323D3D3E5B25785D00000000963400209C
:108BB00054696D652069733A25642D25642D2564FB
:108BC0002C2025643A25643A25640A001027000009
:108BD00000B58BB00D4800F033FD0C480C4AC1883D
:108BE000891805910179491E0491C1780391817812
:108BF000083902914178019100780090FCF70AFD54
:108C00006846FBF775FE0BB000BD000096340020EF
:108C100094F8FFFF10B520210648FBF7C8FE054871
:108C200000212030017541752022811A1830FFF78C
:108C3000FFFB10BD7857002010B5044801210170DA
:108C400041700902C07BFCF7DDFB10BDC83300207A
:108C500010B57D21C003C900FCF7C8FB00F002F885
:108C600010BD0000F8B506460027FCF7D3FC04460B
:108C70000648051B06E0FCF7CDFCA04201D3071B0C
:108C800000E02F18B742F6D3F8BD0000FFFFFF0049
:108C9000F8B5C44FC548C54AB98800780090163267
:108CA0005278C2489446C14ABF4B1632C07B927874
:108CB0000025012499427AD3BC4B664616331B78B3
:108CC0009E19D64273D0002B09D0B84B1A331B78AB
:108CD000002B04D0B54B22331B78002B1ED1B44B94
:108CE00099420CD36346002B09D0B04B1A335B7802
:108CF000002B04D0AD4B22335B78002B0ED1AD4B53
:108D000099421ED3002A1CD0A8491A31897800291B
:108D100017D0A64922318978002912D0A34EA6493E
:108D200075738C700099002923D001214902FCF74A
:108D300069FBFF21A14A0131F07BFCF769FBFCF7DD
:108D400097FDB888984988421AD39849163109780E
:108D5000002915D095491A310A78002A10D00A4600
:108D600008321378002B0BD0081D04700D7014709E
:108D7000F8BD7470FF2134700131FCF743FBDEE76E
:108D80008B49884214D389491631497800290FD07C
:108D9000864A1A32517800290AD0114608314B7898
:108DA000002B05D0081F447055704C70F8BD16E0BC
:108DB00080498842FAD37D48163080780028F5D063
:108DC0007A481A3081780029F0D00246083291782A
:108DD0000029EBD0011D8C7085709470E6E7734F0D
:108DE000734B30373E460A3699427CD33346243B98
:108DF000DB78002B77D06E4B5B42CB18CE2B02D2A8
:108E00006346002B22D027231B02CB1A322B1DD303
:108E1000684B5B42CB18CE2B01D2002A16D005221C
:108E2000D2028A1A322A11D3654A8A18CE2A0DD361
:108E3000292212028A1A322A08D3624A8A18CE2AB2
:108E400004D315225202891A322913D2574A5A4999
:108E500055738C700099002923D001214902FCF739
:108E6000D1FA5248FF21554A0131C07BFCF7D0FAB4
:108E7000FCF7FEFC4B484E49808849424118CE29F8
:108E800004D24A4916314978002911D02721090214
:108E9000411A322912D243481C3844707D707470D4
:108EA00084E75470FF2114700131FCF7ABFADFE75F
:108EB0003C481C3804703D70347077E73D494942A6
:108EC0004118CE2904D239491631897800290BD0AE
:108ED0000521C902411A32290CD232481C38C4700B
:108EE000FD70F47062E72FE02E481C388470BD706E
:108EF000B4705BE732494118CE2905D229481C38A5
:108F000004713D71347151E729210902411A322956
:108F100005D224481C3844717D71747146E7294993
:108F20004118CE2905D21F481C388471BD71B47117
:108F30003CE715214902401A3228B1D219481C38A1
:108F4000C471FD71F47131E7252000028142A7D878
:108F50001648407B0028A3D1144A1A32134608331E
:108F6000195C002902D0115C002904D10F49145466
:108F70001E310D541C54401C0428F1DB094900200B
:108F80001C39325C002A02D03A5C002A02D13C54DF
:108F90000D543454401C0828F3DB074885700348FF
:108FA000447303E71851002032250000C833002025
:108FB00032260000322700004834002060EA00001A
:108FC000CED7FFFFCED6FFFF08B500020091000A02
:108FD00004226946FFF760FA002800D0012008BD8E
:108FE00010B50A460021FFF773FB10BD10B50A4605
:108FF0004021FFF76DFB10BD0FB410B503A9044B62
:10900000044A029800F09AF810BC08BC04B0184753
:1090100041A5FF1F083500200FB410B504A9074B68
:1090200002AA039800F08AF8044602A9002000F082
:10903000BFFA204610BC08BC04B01847B195FF1F0A
:109040002021020C01D010211046020A01D0104646
:109050000839020901D01046091F820801D01046C4
:10906000891E420801D0881E7047081A7047000008
:10907000002805DBC106C90E0120884001490860AF
:109080007047000000E100E08307FF22DB0E9A40FA
:109090008907090E9940002808DB830809489B00CE
:1090A0001818036893430B43036070470007000FD1
:1090B0000838830804489B001818C36993430B437E
:1090C000C361704700E400E000ED00E08307FF2289
:1090D000DB0E9A408907090E9940002808DB8308B7
:1090E00009489B001818036893430B4303607047BB
:1090F0000007000F0838830804489B001818C3694C
:1091000093430B43C361704700E400E000ED00E0CF
:109110000048704714350020EFF30380704702E0E9
:1091200008C8121F08C1002AFAD1704770470020F2
:1091300001E001C1121F002AFBD17047FFB591B0B9
:109140000F460546002606E025280AD0149A1399F2
:1091500090476D1C761C28780028F5D1304615B054
:10916000F0BD002400940121F34A029400E004437E
:109170006D1C2B780846203B98401042F7D1287888
:109180002A280ED0022128780246303A092A15D81A
:10919000009A0A235A43303A80180C436D1C009001
:1091A000F1E701CF0090002805DA012040030443D5
:1091B000009840420090022004436D1C28782E281D
:1091C00015D10420044368786D1C2A280AD101CFE8
:1091D0006D1C02900BE002990A225143303940186D
:1091E0006D1C02902878014630390929F3D9287876
:1091F0006C2810D006DC4C281AD068280ED06A28BB
:1092000017D104E0742813D07A2812D110E001207D
:10921000400504430CE00121090501E00321090593
:109220000C436978814203D10120000524186D1C8C
:109230006D1C287803906E281ED00CDC632831D07A
:1092400004DC00288AD0582811D1B2E064287BD0F1
:1092500069280CD178E073282DD004DC6F2870D0F9
:10926000702804D1A7E075286CD078286BD0149AA8
:1092700013999047761C62E06002400F022807D0E5
:1092800003280AD0042838680AD006603F1D56E03B
:109290003868F11706604160F8E738680680F5E73E
:1092A0000670F3E73878694608740020487404A80B
:1092B0000390012003E0386803900020C0433F1D65
:1092C00061070FD5002101E00199491C029A019123
:1092D000914213DA8142F7DB019A0399895C0029F4
:1092E000F2D10BE0002101E00199491C019181427A
:1092F000FADB019A0399895C0029F5D1019900985C
:10930000139A401A00902146149B00F03BF90199F2
:109310008019461807E0039803990078491C0391C7
:10932000149A139990470198401E0190401CF2D165
:109330002146149B139A009800F014F986196D1CAD
:1093400009E741E033E034E00A2000210490059170
:109350006002410F022905D001CFC21794460329AC
:1093600005D007E0FF1DFF08FF0003CF06E000B2B5
:10937000C2179446042902D140B2C1178C4600227C
:109380006146944506DA0A460021404291418C46E6
:109390002D2102E0210504D52B216A4611760121F9
:1093A00003E0E10701D02021F7E7019154E00A2012
:1093B0000BE0102009E01020049000210420044359
:1093C00008200591029003E00820002105910490F7
:1093D0006002410F022905D001CF002294460329E3
:1093E00006D006E0FF1DFF08FF0003CF8C4603E018
:1093F00080B2042900D1C0B20021019121072BD5F0
:109400000399702906D0049A1021059B4A401A43FB
:1094100005D00EE040216A461176012108E0614640
:10942000014306D030216A46117603995176022114
:109430000191049A0821059B4A401A430CD16146C8
:10944000014301D1610707D530216A461176012118
:1094500001910299491E02910399582904D037A11C
:1094600003910FA90F910DE039A1F9E76146059B22
:10947000049AFBF792FD039B8C469B5C0F9A521E4D
:109480000F92137061460143F0D10F9807A9081A93
:1094900020300390600704D5012000048443029823
:1094A00001E0012002900399884201DD401A00E0AA
:1094B000002041180290019809180098401A009065
:1094C000E00306D42146149B139A009800F05AF842
:1094D00086190020049008E006A9085C149A1399E4
:1094E00090470498401C761C049001998842F3DB55
:1094F000E0030CD52146149B139A009800F042F823
:10950000861904E0149A302013999047761C02992A
:10951000481E02900029F5DC08E00F980F990078AA
:10952000491C0F91149A13999047761C0399481E71
:1095300003900029F1DCFBE60928010030313233C9
:10954000343536373839616263646566000000007F
:109550003031323334353637383941424344454669
:1095600000000000F8B5044600251E461746880492
:1095700004D405E039462020B0476D1C641EF9D59F
:109580002846F8BDFFB50446002581B01E46C80335
:1095900001D5302700E02027880404D505E03846AF
:1095A0000399B0476D1C641EF9D5284605B0F0BD7F
:1095B0000A68531C0B6010707047000010B5044817
:1095C0000449806802F026FD02F06CFE10BD000028
:1095D000C4340020D995FF1F38B50446007BA1682C
:1095E00042000E48FBF71AFF0D480178202913D1DD
:1095F000C178807889068006C00F0090CB0F227B4F
:109600000649052002F0E6FE0649FBF77DFAFBF766
:1096100067FC03490839486038BD0000F058002055
:10962000CC34002000007A4404490868FF2212026A
:1096300090430122D2031043086070471CE400E00D
:1096400038B5154D0446A98828684904C00B08435D
:109650000090FBF7DFFFA968814204D90099FF3130
:10966000FF31023100910099C00B4018009068460C
:10967000FBF7F8FC017C094A491C2171818A891891
:10968000E180017BE170017AA1700179617000785D
:109690002070002038BD0000385800206C07000002
:1096A00070B50446FBF7B6FF05462046FBF720F9E8
:1096B0000446002621460CA004F01AFE610CF203B9
:1096C0000A43E103481B0949B24125C108A004F03F
:1096D0000FFE08A004F00CFE1021044804F08EFFD9
:1096E00003A004F005FE70BD25640000385800207A
:1096F0000A0000006170705F6461746574696D6573
:109700005F61646A7573745F626173656C696E65CD
:109710003A0A000000B58FB003A802F0C5F803AB09
:1097200007CB02900191009206490898079A4118C8
:1097300005A0521C069B04F0DBFD03A8FFF7B0FF59
:109740000FB000BD6C0700000A636865636B5F645F
:10975000656661756C745F6461746574696D6520BC
:109760000A54696D652069732025642D25642D25B3
:10977000642C2025643A25643A2564200A00000000
:1097800033B58FB02C2103A8FBF711F910AD2A785F
:10979000501E079069880F4808AD08180890EB7FA5
:1097A0000693A87F05906C7F04942D7F009003950D
:1097B0000295019408A004F09BFD03A8FFF770FF39
:1097C0001021104804F01AFF0DA004F091FD0020B4
:1097D00011B030BD94F8FFFF54696D652069732D99
:1097E0002D2D2D2D2D2D2D2D2D2D2D2D2D20256487
:1097F0002D25642D25642C2025643A25643A2564A2
:109800000A0000003858002070B5FBF703FF074935
:109810008A68824208D901250B682D064A685B19BF
:10982000002462410B604A60886070BD3858002097
:1098300010B5FBF7F5FE0120FBF7F8FEFBF7FCFE89
:10984000002010BDF0B500248E464A1E12E071467D
:1098500000230D1B6D1E0AE09E0031188C468759AF
:1098600049688F4202D9815161464F605B1C9D421D
:10987000F2D8641C9442EAD3F0BD000010B50B4C42
:109880004123E370207161710120A071E0712072A9
:1098900062720721E01CFEF7C5FFA0720820A070CD
:1098A00003482146808AFDF7A9FB10BD1E54002005
:1098B000C8330020F8B51B4CF421E01CFBF777F807
:1098C0005220E0700025012325716371A371E371BB
:1098D0000820154E2072B0682946CF000246FA4093
:1098E00009277F1A3F19491CC9B2FA700429F4D319
:1098F000B0786073F078A0733078002801D0E573F9
:1099000000E0E373707820740E21E01CFEF78AFFFC
:1099100060740F20A07005480249808AFDF76EFB35
:10992000F8BD00001E54002018510020C83300204C
:1099300010B50C4C4523E370207161710120A071BA
:10994000E071207262720721E01CFEF76BFFA072CB
:109950000820A07004482146808AFDF74FFBA8B27A
:1099600010BD00001E540020C8330020FFB5FFB01A
:10997000FFB0B3B0FFA88430FF2102AE876E69311B
:109980003046FBF714F8FFA8002480214430FBF791
:109990000EF8FF21E1315CA8FBF709F8F021D4A80B
:1099A000FBF705F800200546FF210090693130469D
:1099B000FAF7FDFF212F01D23D4612E0384621384B
:1099C000212801D201210AE038464238212801D25B
:1099D000022104E038466338212802D20321C5B2AF
:1099E0000091009841014018364940184019A030B4
:1099F000007B002862D00E462036717F3046491C1D
:109A000071776438026C02AB2946009801F0F0FED1
:109A10000246019039462CA004F06AFC2A462FA089
:109A2000009904F065FC334F4120F870B07F387125
:109A300002207871F07FB871707FF871019906206B
:109A400041430D4639722CA004F052FCFFA884302B
:109A5000C16C2BA004F04CFC717F29A004F048FCE1
:109A6000294627A004F044FC13E021460620414388
:109A700002AA535CC819891843724A7882728A789C
:109A8000C272CA7802730A7942734979641C81737D
:109A9000E4B201988442E8D306204443A41DE4B212
:109AA0002146F81CFEF7BEFE3919C870641C154823
:109AB000BC701049808AFDF7A1FA01207FB07FB009
:109AC00037B0F0BD6851002073656E645F6E756DD0
:109AD0005B25645D203D2564200A000073656E648B
:109AE0002E56616C69644E756D5B25645D5B256403
:109AF0005D200A001E5400202D2D2D2D2D0000006C
:109B000025782000C833002001680A0508D11031EB
:109B1000044A016052781203914201D3891A01600C
:109B200070470000B034002010B50020054CFF2124
:109B30002218401C51704028FADB04F021FF2070ED
:109B400010BD00008059002010B50020054CFF21F9
:109B50002218401C51700628FADB04F02FFF2070F9
:109B600010BD0000FD340020084801694907FCD5FC
:109B7000012181600549052280390A700269520776
:109B8000FCD50878C007C00F70470000800008119E
:109B900070B500231C4603E0CD5C2C195B1CDBB2C6
:109BA0009342F9D3E4B2002806D0214605A004F080
:109BB0009FFBFF20001B70BDFF2C01D0002070BD5B
:109BC000012070BD73756D203D202578200A0000AE
:109BD000F0B58646080CFF268446002388B2374637
:109BE0001C46194601228A4005461540CD402C19D5
:109BF000A4B2FF2F02D1012C00D18FB265462A40BA
:109C0000CA40D21893B2FF2E02D1012B00D18EB2DE
:109C1000491C1029E6DB012C02D0102C08D009E0E9
:109C2000012B07D13001C019714608700220F0BD28
:109C3000102B01D00320F0BD0120F0BD10B528216C
:109C40000148FAF7B4FE10BD48580020032806D397
:109C5000012189078B680122824093438B60704702
:109C6000032806D3012189078B6801228240134310
:109C70008B60704701480068704700001010FF1F9C
:109C8000012292071368012181408B431360106801
:109C900008431060704710B5002A03D0FFF748FE54
:109CA000012010BDFFF7EAFDFAE77D235B0103E029
:109CB0001946491EFDD2401E0028F9D1704703E025
:109CC0000221491EFDD2401E0028F9D17047000034
:109CD000F8B5496894460A784978069809025118F7
:109CE0008FB2444A11210025079CBE1A091A9742D7
:109CF00043D009DC404ABA1813D0012A1CD0022AEA
:109D000025D0032A08D12EE0012E40D0022E48D0C3
:109D1000032E50D0292E5AD0002018700A2528462C
:109D2000F8BD082855D20821091AA14200D80C46CE
:109D3000E2B21A70314957E00C284AD20C21091AB4
:109D4000A14200D80C46E2B21A702D494CE00D2811
:109D50003FD20D21091AA14200D80C462849E2B28F
:109D60001A700D3140E0112833D2A14200D80C46C0
:109D70002349E2B21A701B3136E0112829D2A142E0
:109D800000D80C461E49E2B21A702D312CE0112881
:109D90001FD2A14200D80C461949E2B21A703F31D5
:109DA00022E0112815D2A14200D80C461449E2B293
:109DB0001A70513118E00E280BD20E21091AA14257
:109DC00000D80C460E49E2B21A7063310CE0072845
:109DD00001D30725A3E70721091AA14200D80C46A1
:109DE0000649E2B21A70C91F09186046FBF716FB54
:109DF00095E70000272A0000DDD5FFFF0B3000208B
:109E000070F8FF1F064801694907FCD500218160F1
:109E1000034A0421803A117001694907FCD5704753
:109E200080000811FFB5002087B01E460C46049044
:109E300007460590019000F065FA02900798002807
:109E400019D10021202002F013FD0021202002F072
:109E50002FFD0121202002F087FD0021202002F0AB
:109E60000FFE6420FEF7F4FE0121202002F008FE20
:109E70000298FEF7CBFB09986A46000A107109990F
:109E8000C9B2009151710A21FBF7B0FAFE4D28705A
:109E900069700A210098FBF7A9FAA870E970642C90
:109EA00001D1002E06D02046304305D05A2C04D3D1
:109EB00003270DE06324FBE7012420463C381E28DD
:109EC00001D2022704E020461E381E2800D20127B6
